:020000040800F2
:1000000000280020590F0008E90E0008EF0E000834
:10001000F50E0008FB0E0008010F000800000000AC
:10002000000000000000000000000000070F0008B2
:10003000130F0008000000001F0F00082B0F00081E
:10004000A10F0008A10F0008A10F0008A10F0008D0
:10005000A10F0008A10F0008A10F0008A10F0008C0
:10006000A10F0008A10F0008A10F0008A10F0008B0
:10007000A10F0008A10F0008A10F0008A10F0008A0
:10008000A10F0008A10F0008A10F0008A10F000890
:10009000A10F0008A10F0008A10F0008A10F000880
:1000A000A10F0008A10F0008A10F0008A10F000870
:1000B000390F0008A10F000800000000A10F000880
:1000C000A10F00080000000000000000A10F0008C0
:1000D00000000000A10F0008A10F000800000000B0
:1000E000A10F0008A10F0008A10F000800000000E8
:1000F0000000000000000000000000000000000000
:0C01000000000000000000005FF808F1A3
:10010C0010B5054C237833B9044B13B10448AFF345
:10011C0000800123237010BD4C0000200000000063
:10012C00FC25000808B5034B1BB103490348AFF38A
:10013C00008008BD0000000050000020FC250008D5
:10014C0080B483B000AF7860044A7B68012142F828
:10015C00231000BF0C37BD4680BC704768000020E0
:10016C0080B582B000AF00237B609DE0534A7B6872
:10017C0052F8232052497B6841F82320514A7B686E
:10018C0052F823204D497B6841F823207B68022BD1
:10019C0021D07B68022B2ADC7B68002B03D07B6888
:1001AC00012B0CD023E04FF40051474801F0E0F94B
:1001BC0003461946434A7B6842F8231018E04FF473
:1001CC008041414801F0D4F9034619463D4A7B6809
:1001DC0042F823100CE04FF400413B4801F0C8F901
:1001EC0003461946374A7B6842F8231000E000BFEB
:1001FC00324A7B6852F8232032497B6851F823300D
:10020C009A424ED12E4A7B6852F823202B497B68A8
:10021C0051F823309A4244D1294A7B6852F8233052
:10022C00012B04D1294A7B68002142F82310244A6F
:10023C007B6852F8232026497B6851F823309A4278
:10024C0016D01F4A7B6852F8232021497B6841F85D
:10025C0023201B4A7B6852F82330002B21D178686D
:10026C00FFF76EFF1B4A7B68642142F8231018E0ED
:10027C00184A7B6852F823305A1E16497B6841F89D
:10028C002320144A7B6852F82330002B09D1104AE2
:10029C007B68012142F823100C4A7B68012142F84B
:1002AC0023107B6801337B607B68022B7FF75EAF8A
:1002BC0000BF00BF0837BD4680BD00BF180000203E
:1002CC00240000200C0000200010014074000020CD
:1002DC00300000200000002080B483B000AF7860B4
:1002EC00094A7B6852F82330012B06D1064A7B68F9
:1002FC00002142F82310012300E0002318460C379C
:10030C00BD4680BC704700BF6800002080B483B03D
:10031C0000AF7860064A7B6852F82330012B01D17C
:10032C00012300E0002318460C37BD4680BC704703
:10033C007400002080B500AF9D4B1B68013B062B61
:10034C0000F23E8201A252F823F000BF75030008B0
:10035C007D03000811040008E7040008CD0500081F
:10036C007106000813070008914B02221A6034E250
:10037C00904B1B68184600F03BFA0020FFF7ACFFCF
:10038C000346012B02D18A4B02221A600120FFF78F
:10039C00A3FF0346012B16D1864B1B68082B03DDEC
:1003AC00844B00221A6004E0824B1B680133814AA3
:1003BC001360814B00221A607D4B03221A6042F2BB
:1003CC00107000F0D1FC0220FFF786FF0346012BD2
:1003DC0040F0F881774B1B68002B03DC754B09222E
:1003EC001A6004E0734B1B68013B724A1360724B3A
:1003FC0000221A606E4B04221A6042F2107000F058
:10040C00B3FCDFE16B4B1B68184600F0F1F90020E0
:10041C00FFF762FF0346012B05D1664B00221A60E1
:10042C00634B02221A600220FFF756FF0346012B92
:10043C0016D1604B1B68002B03DC5E4B09221A6043
:10044C0004E05C4B1B68013B5A4A13605A4B002278
:10045C001A60574B04221A6042F2107000F084FCB0
:10046C000120FFF739FF0346012B29D10120FFF7AB
:10047C004DFF0346012B10D14F4B1B6801334E4AE5
:10048C0013604D4B1B68032B1AD142F2107000F015
:10049C006BFC474B05221A6012E0464B1B68082B7D
:1004AC0003DD444B00221A6004E0424B1B6801330D
:1004BC00404A1360404B00221A603D4B03221A60E5
:1004CC003E4B1B68012B40F07F814FF47A7000F09B
:1004DC004BFC374B07221A6076E1364B1B681846EB
:1004EC0000F086F90020FFF7F7FE0346012B05D13B
:1004FC00304B00221A602E4B02221A600120FFF7AB
:10050C00EBFE0346012B16D12A4B1B68082B03DD8F
:10051C00284B00221A6004E0264B1B680133254A45
:10052C001360254B00221A6042F2107000F01CFC84
:10053C001F4B03221A600220FFF7CEFE0346012B4D
:10054C0029D10220FFF7E2FE0346012B10D11A4BF2
:10055C001B680133184A1360174B1B68032B1AD105
:10056C0042F2107000F000FC114B06221A6012E0EF
:10057C00104B1B68002B03DC0E4B09221A6004E0A5
:10058C000C4B1B68013B0B4A13600B4B00221A608F
:10059C00074B04221A60094B1B68012B40F0168193
:1005AC004FF47A7000F0E0FB014B07221A600DE16A
:1005BC00880000208000002084000020D80000204B
:1005CC00874B1B68184600F013F90020FFF784FED8
:1005DC000346012B05D1824B00221A60814B02226B
:1005EC001A600120FFF778FE0346012B10D17C4BDB
:1005FC001B68082B03DD7A4B00221A6004E0784B51
:10060C001B680133764A136042F2107000F0ACFBA9
:10061C000220FFF761FE0346012B16D1704B1B68BD
:10062C00002B03DC6E4B09221A6004E06C4B1B6838
:10063C00013B6B4A136042F2107000F095FB6A4B61
:10064C0000221A60674B04221A60684B1B68012B4E
:10065C0040F0BE804FF47A7000F086FB614B0722AD
:10066C001A60B5E05E4B1B68184600F0C1F800201C
:10067C00FFF732FE0346012B05D1594B00221A60BD
:10068C00584B02221A600120FFF726FE0346012B6D
:10069C0016D1534B1B68082B03DD514B00221A60FB
:1006AC0004E04F4B1B6801334D4A136042F210704B
:1006BC0000F05AFB4C4B00221A604A4B03221A6082
:1006CC000220FFF709FE0346012B10D1444B1B6897
:1006DC00002B03DC424B09221A6004E0404B1B68E0
:1006EC00013B3F4A136042F2107000F03DFB3F4B60
:1006FC001B68012B6ED14FF47A7000F035FB394B2F
:10070C0007221A6066E0364B1B68184600F070F83A
:10071C000020FFF7E1FD0346012B05D1304B0022F1
:10072C001A60304B02221A600120FFF7D5FD0346F8
:10073C00012B16D12A4B1B68082B03DD284B0022FA
:10074C001A6004E0264B1B680133254A136042F201
:10075C00107000F009FB244B00221A60214B03227D
:10076C001A600220FFF7B8FD0346012B16D11C4B73
:10077C001B68002B03DC1A4B09221A6004E0184B8F
:10078C001B68013B164A136042F2107000F0ECFA41
:10079C00154B00221A60134B04221A60134B1B6872
:1007AC00012B19D10E4B1B68002B04DD0C4B1B6865
:1007BC00013B0B4A13604FF47A7000F0D5FA0BE052
:1007CC0000BF0AE000BF08E000BF06E000BF04E085
:1007DC0000BF02E000BF00E000BF00BF80BD00BF53
:1007EC00800000208800002084000020D800002019
:1007FC0080B582B000AF78607B68092B00F28081F5
:10080C0001A252F823F000BF3D080008850800083B
:10081C00CD080008150900085D090008A5090008A5
:10082C00ED090008350A00087D0A0008C50A000811
:10083C0000220121B44800F0B2FE00220221B2488D
:10084C0000F0ADFE00220421AF4800F0A8FE00220B
:10085C000821AD4800F0A3FE00221021AA4800F0A8
:10086C009EFE00222021A84800F099FE0122402182
:10087C00A54800F094FE43E101220121A24800F0BA
:10088C008EFE00220221A04800F089FE00220421E5
:10089C009D4800F084FE012208219B4800F07FFE59
:1008AC0001221021984800F07AFE0122202196485E
:1008BC0000F075FE01224021934800F070FE1FE10C
:1008CC0000220121904800F06AFE002202218E488D
:1008DC0000F065FE012204218B4800F060FE00222E
:1008EC000821894800F05BFE00221021864800F0A8
:1008FC0056FE01222021844800F051FE00224021A6
:10090C00814800F04CFEFBE0002201217E4800F003
:10091C0046FE002202217C4800F041FE0022042108
:10092C00794800F03CFE00220821774800F037FEA1
:10093C0001221021744800F032FE0122202172485D
:10094C0000F02DFE002240216F4800F028FED7E079
:10095C00012201216C4800F022FE002202216A488B
:10096C0000F01DFE00220421674800F018FE012251
:10097C000821654800F013FE01221021624800F0A6
:10098C000EFE00222021604800F009FE00224021CA
:10099C005D4800F004FEB3E0002201215A4800F04B
:1009AC00FEFD01220221584800F0F9FD002204212D
:1009BC00554800F0F4FD00220821534800F0EFFDEB
:1009CC0001221021504800F0EAFD002220214E485F
:1009DC0000F0E5FD002240214B4800F0E0FD8FE0E7
:1009EC0000220121484800F0DAFD0122022146488C
:1009FC0000F0D5FD00220421434800F0D0FD002278
:100A0C000821414800F0CBFD002210213E4800F0A7
:100A1C00C6FD002220213C4800F0C1FD00224021EF
:100A2C00394800F0BCFD6BE000220121364800F093
:100A3C00B6FD00220221344800F0B1FD0022042151
:100A4C00314800F0ACFD012208212F4800F0A7FD31
:100A5C00012210212C4800F0A2FD012220212A485D
:100A6C0000F09DFD01224021274800F098FD47E051
:100A7C0000220121244800F092FD0022022122488C
:100A8C0000F08DFD002204211F4800F088FD00229B
:100A9C0008211D4800F083FD002210211A4800F0A7
:100AAC007EFD00222021184800F079FD0022402113
:100ABC00154800F074FD23E000220121124800F0DB
:100ACC006EFD00220221104800F069FD0022042175
:100ADC000D4800F064FD002208210B4800F05FFD7A
:100AEC0001221021084800F05AFD0022202106485E
:100AFC0000F055FD00224021034800F050FD00BFDE
:100B0C0000BF0837BD4680BD000C014080B500AF6A
:100B1C00064B1B68012B07D12021054800F057FD1F
:100B2C004FF47A7000F03AF900BF80BDE00000206D
:100B3C000008014080B500AF00F02EFA00F018F864
:100B4C0000F09EF800F050F8074801F091F9074BBF
:100B5C0001221A604FF47A7000F020F9FFF7D6FFEB
:100B6C00FFF7E8FBFAE700BF8C00002088000020AC
:100B7C0080B590B000AF07F1180328220021184669
:100B8C0001F02EFD3B1D00221A605A609A60DA605B
:100B9C001A610223BB610123BB621023FB62002399
:100BAC007B6307F11803184600F02AFD0346002B5F
:100BBC0001D000F0D3F80F237B600023BB6000232F
:100BCC00FB6000233B6100237B613B1D0021184629
:100BDC0000F098FF0346002B01D000F0BFF800BFD7
:100BEC004037BD4680BD000080B586B000AF07F130
:100BFC00080300221A605A609A60DA603B460022B1
:100C0C001A605A601D4B4FF080421A601B4B41F624
:100C1C003F725A60194B00229A60184B0922DA6015
:100C2C00164B00221A61154B00229A61134801F0F1
:100C3C00CFF80346002B01D000F090F84FF480530E
:100C4C00BB6007F1080319460C4801F065FA03462E
:100C5C00002B01D000F082F800233B6000237B6066
:100C6C003B461946054801F02DFC0346002B01D0EC
:100C7C0000F074F800BF1837BD4680BD8C00002012
:100C8C0080B588B000AF07F1100300221A605A60DB
:100C9C009A60DA602D4B9B692C4A43F010039361E8
:100CAC002A4B9B6903F01003FB60FB68274B9B6985
:100CBC00264A43F004039361244B9B6903F004031D
:100CCC00BB60BB68214B9B69204A43F008039361CE
:100CDC001E4B9B6903F008037B607B68002220217C
:100CEC001B4800F05CFC00227F211A4800F057FCE6
:100CFC004FF460433B6100237B610123BB6107F12F
:100D0C0010031946144800F0B7FA20233B61012365
:100D1C007B610023BB610223FB6107F110031946C1
:100D2C000B4800F0A9FA7F233B6101237B61002370
:100D3C00BB610223FB6107F110031946054800F063
:100D4C009BFA00BF2037BD4680BD00BF001002409B
:100D5C0000080140000C01400010014080B400AFBD
:100D6C0072B600BFFEE7000080B483B000AF7860BD
:100D7C00074B1B687A6892FBF3F3064A1360064B29
:100D8C0000221A6000BF0C37BD4680BC704700BF04
:100D9C003C000020D4000020D800002080B483B098
:100DAC0000AF7860074B1B687A6892FBF3F3064A36
:100DBC001360064B00221A6000BF0C37BD4680BC86
:100DCC00704700BF3C000020DC000020E000002049
:100DDC0080B400AF114B1B68002B0BDD0F4B1B6855
:100DEC00013B0E4A13600D4B1B68002B02DC0C4BB5
:100DFC0001221A600B4B1B68002B0BDD094B1B6887
:100E0C00013B084A1360074B1B68002B02DC064BA6
:100E1C0001221A6000BFBD4680BC7047D400002080
:100E2C00D8000020DC000020E000002080B582B05B
:100E3C0000AF78607B681B68B3F1804F01D1FFF77E
:100E4C008FF9FFF7C5FF00BF0837BD4680BD000016
:100E5C0080B483B000AF0E4B9B690D4A43F0010385
:100E6C0093610B4B9B6903F001037B607B68084B20
:100E7C00DB69074A43F08053D361054BDB6903F010
:100E8C0080533B603B6800BF0C37BD4680BC70474D
:100E9C000010024080B584B000AF78607B681B689E
:100EAC00B3F1804F13D10C4BDB690B4A43F00103B8
:100EBC00D361094BDB6903F00103FB60FB68002283
:100ECC0000211C2000F0A1F91C2000F0BAF900BF91
:100EDC001037BD4680BD00BF0010024080B400AF8B
:100EEC00FEE780B400AFFEE780B400AFFEE780B44D
:100EFC0000AFFEE780B400AFFEE780B400AF00BFE8
:100F0C00BD4680BC704780B400AF00BFBD4680BCFE
:100F1C00704780B400AF00BFBD4680BC704780B541
:100F2C0000AF00F07FF800BF80BD000080B500AFBF
:100F3C00024800F0E9FF00BF80BD00BF8C0000201C
:100F4C0080B400AF00BFBD4680BC70470C480D4953
:100F5C000D4A002302E0D458C4500433C4188C4208
:100F6C00F9D30A4A0A4C002301E013600432A2426E
:100F7C00FBD3FFF7E5FF01F00FFBFFF7DBFD70473D
:100F8C00000000204C0000203C2600084C000020F3
:100F9C00E8000020FEE7000080B500AF084B1B689E
:100FAC00074A43F010031360032000F023F90F20CD
:100FBC0000F008F8FFF74CFF0023184680BD00BF77
:100FCC000020024080B582B000AF7860124B1A68E6
:100FDC00124B1B7819464FF47A73B3FBF1F3B2FB47
:100FEC00F3F3184600F03BF90346002B01D0012324
:100FFC000EE07B680F2B0AD8002279684FF0FF3087
:10100C0000F003F9064A7B681360002300E001231B
:10101C0018460837BD4680BD40000020480000201F
:10102C004400002080B400AF054B1B781A46054BDA
:10103C001B681344034A136000BFBD4680BC704755
:10104C0048000020E400002080B400AF024B1B6875
:10105C001846BD4680BC7047E400002080B485B0C3
:10106C0000AF78607B6803F00703FB600C4BDB6818
:10107C00BB60BA684FF6FF031340BB60FB681A02F3
:10108C00BB68134343F0BF6343F40033BB60044AB3
:10109C00BB68D36000BF1437BD4680BC704700BF2F
:1010AC0000ED00E080B400AF044BDB681B0A03F0DA
:1010BC0007031846BD4680BC704700BF00ED00E03A
:1010CC0080B483B000AF0346FB7197F90730002B57
:1010DC000BDBFB7903F01F02064997F907305B091C
:1010EC00012000FA02F241F8232000BF0C37BD4664
:1010FC0080BC704700E100E080B483B000AF0346D1
:10110C003960FB7197F90730002B0ADB3B68DAB2C8
:10111C000C4997F907301201D2B20B4483F8002323
:10112C000AE03B68DAB20849FB7903F00F03043B91
:10113C001201D2B20B441A7600BF0C37BD4680BCEC
:10114C00704700BF00E100E000ED00E080B489B022
:10115C0000AFF860B9607A60FB6803F00703FB61CD
:10116C00FB69C3F10703042B28BF0423BB61FB6994
:10117C000433062B02D9FB69033B00E000237B619F
:10118C004FF0FF32BB6902FA03F3DA43BB681A4033
:10119C007B699A404FF0FF317B6901FA03F3D94325
:1011AC007B680B40134318462437BD4680BC704700
:1011BC0080B582B000AF78607B68013BB3F1807F73
:1011CC0001D301230FE00A4A7B68013B53600F21D6
:1011DC004FF0FF30FFF790FF054B00229A60044B55
:1011EC0007221A60002318460837BD4680BD00BF91
:1011FC0010E000E080B582B000AF78607868FFF74F
:10120C002DFF00BF0837BD4680BD80B586B000AF4E
:10121C000346B9607A60FB7300237B61FFF742FFE2
:10122C0078617A68B9687869FFF790FF024697F998
:10123C000F3011461846FFF75FFF00BF1837BD4649
:10124C0080BD80B582B000AF0346FB7197F90730C3
:10125C001846FFF735FF00BF0837BD4680BD80B587
:10126C0082B000AF78607868FFF7A2FF034618469B
:10127C000837BD4680BD000080B48BB000AF7860ED
:10128C00396000237B6200233B6261E101227B6AAF
:10129C0002FA03F3FB613B681B68FA691340BB61FC
:1012AC00BA69FB699A4240F050813B685B68974A87
:1012BC0093425ED0954A934275D8954A934258D042
:1012CC00934A93426FD8934A934252D0914A934295
:1012DC0069D8914A93424CD08F4A934263D88F4A33
:1012EC00934246D08D4A93425DD8122B2AD8122BAA
:1012FC0059D801A252F823F07F13000859130008A3
:10130C006B130008AD130008B3130008B3130008E7
:10131C00B3130008B3130008B3130008B313000889
:10132C00B3130008B3130008B3130008B313000879
:10133C00B3130008B3130008B313000861130008BB
:10134C0075130008764A934213D02CE03B68DB6897
:10135C003B6229E03B68DB6804333B6224E03B687A
:10136C00DB6808333B621FE03B68DB680C333B6295
:10137C001AE03B689B68002B02D104233B6213E00C
:10138C003B689B68012B05D108233B627B68FA699B
:10139C001A6109E008233B627B68FA695A6103E031
:1013AC0000233B6200E000BFBB69FF2B01D87B68C8
:1013BC0001E07B6804337B61BB69FF2B02D87B6A3D
:1013CC009B0002E07B6A083B9B003B617B691A68CF
:1013DC000F213B6901FA03F3DB431A40396A3B697D
:1013EC0001FA03F31A437B691A603B685B6803F0EC
:1013FC008053002B00F0A9804A4B9B69494A43F06B
:10140C0001039361474B9B6903F00103BB60BB680D
:10141C00454A7B6A9B08023352F82330FB607B6A97
:10142C0003F003039B000F2202FA03F3DB43FA6879
:10143C001340FB607B683D4A93420DD07B683C4A6D
:10144C00934207D07B683B4A934201D1022304E0CC
:10145C00032302E0012300E000237A6A02F0030276
:10146C0092009340FA681343FB602F497B6A9B08F8
:10147C000233FA6841F823203B685B6803F480333D
:10148C00002B06D02C4B1A682B49BB6913430B60FD
:10149C0006E0294B1A68BB69DB43274913400B60F4
:1014AC003B685B6803F40033002B06D0224B5A6870
:1014BC002149BB6913434B6006E01F4B5A68BB695B
:1014CC00DB431D4913404B603B685B6803F480139E
:1014DC00002B06D0184B9A681749BB6913438B60D5
:1014EC0006E0154B9A68BB69DB43134913408B60CC
:1014FC003B685B6803F40013002B1FD00E4BDA68BB
:10150C000D49BB691343CB601FE000BF00003210D4
:10151C0000003110000022100000211000001210F9
:10152C0000001110001002400000014000080140B2
:10153C00000C014000100140000401400B4BDA6824
:10154C00BB69DB4309491340CB607B6A01337B6287
:10155C003B681A687B6A22FA03F3002B7FF496AE81
:10156C0000BF00BF2C37BD4680BC70470004014053
:10157C0080B485B000AF78600B467B807B689A683E
:10158C007B881340002B02D00123FB7301E0002366
:10159C00FB73FB7B18461437BD4680BC704780B488
:1015AC0083B000AF78600B467B8013467B707B78F2
:1015BC00002B03D07A887B681A6103E07B881A04BD
:1015CC007B681A6100BF0C37BD4680BC704780B485
:1015DC0085B000AF78600B467B807B68DB68FB6076
:1015EC007A88FB6813401A04FB68D9437B880B404C
:1015FC001A437B681A6100BF1437BD4680BC704724
:10160C0080B586B000AF78607B68002B01D10123D8
:10161C0072E27B681B6803F00103002B00F08780EB
:10162C00924B5B6803F00C03042B0CD08F4B5B6864
:10163C0003F00C03082B12D18C4B5B6803F4803342
:10164C00B3F5803F0BD1894B1B6803F40033002B9F
:10165C006CD07B685B68002B68D101234CE27B6803
:10166C005B68B3F5803F06D1804B1B687F4A43F41F
:10167C00803313602EE07B685B68002B0CD17B4BB6
:10168C001B687A4A23F480331360784B1B68774AC3
:10169C0023F4802313601DE07B685B68B3F5A02FF7
:1016AC000CD1724B1B68714A43F4802313606F4B4F
:1016BC001B686E4A43F4803313600BE06B4B1B6862
:1016CC006A4A23F480331360684B1B68674A23F41F
:1016DC00802313607B685B68002B13D0FFF7B4FC8E
:1016EC00386108E0FFF7B0FC02463B69D31A642B63
:1016FC0001D9032300E25D4B1B6803F40033002B7C
:10170C00F0D014E0FFF7A0FC386108E0FFF79CFC78
:10171C0002463B69D31A642B01D90323ECE1534BEA
:10172C001B6803F40033002BF0D100E000BF7B6892
:10173C001B6803F00203002B63D04C4B5B6803F077
:10174C000C03002B0BD0494B5B6803F00C03082BEC
:10175C001CD1464B5B6803F48033002B16D1434BF2
:10176C001B6803F00203002B05D07B681B69012B5F
:10177C0001D00123C0E13D4B1B6823F0F8027B68CC
:10178C005B69DB00394913430B603AE07B681B69EA
:10179C00002B20D0364B01221A60FFF755FC386124
:1017AC0008E0FFF751FC02463B69D31A022B01D922
:1017BC000323A1E12D4B1B6803F00203002BF0D097
:1017CC002A4B1B6823F0F8027B685B69DB00274916
:1017DC0013430B6015E0264B00221A60FFF734FC14
:1017EC00386108E0FFF730FC02463B69D31A022B44
:1017FC0001D9032380E11D4B1B6803F00203002B6E
:10180C00F0D17B681B6803F00803002B3AD07B688F
:10181C009B69002B19D0174B01221A60FFF714FC9F
:10182C00386108E0FFF710FC02463B69D31A022B23
:10183C0001D9032360E10D4B5B6A03F00203002B1B
:10184C00F0D0012000F0A6FA1CE00A4B00221A602E
:10185C00FFF7FAFB38610FE0FFF7F6FB02463B6936
:10186C00D31A022B08D9032346E100BF0010024013
:10187C000000424280044242924B5B6A03F0020336
:10188C00002BE9D17B681B6803F00403002B00F0EC
:10189C00A6800023FB758B4BDB6903F08053002B78
:1018AC000DD1884BDB69874A43F08053D361854B5C
:1018BC00DB6903F08053BB60BB680123FB75824B73
:1018CC001B6803F48073002B18D17F4B1B687E4A76
:1018DC0043F480731360FFF7B7FB386108E0FFF740
:1018EC00B3FB02463B69D31A642B01D9032303E1F2
:1018FC00754B1B6803F48073002BF0D07B68DB689E
:10190C00012B06D16F4B1B6A6E4A43F00103136225
:10191C002DE07B68DB68002B0CD16A4B1B6A694A93
:10192C0023F001031362674B1B6A664A23F004031E
:10193C0013621CE07B68DB68052B0CD1614B1B6AC6
:10194C00604A43F0040313625E4B1B6A5D4A43F02A
:10195C00010313620BE05B4B1B6A5A4A23F0010331
:10196C001362584B1B6A574A23F0040313627B68BB
:10197C00DB68002B15D0FFF767FB38610AE0FFF737
:10198C0063FB02463B69D31A41F28832934201D978
:10199C000323B1E04B4B1B6A03F00203002BEED088
:1019AC0014E0FFF751FB38610AE0FFF74DFB0246EC
:1019BC003B69D31A41F28832934201D903239BE04D
:1019CC00404B1B6A03F00203002BEED1FB7D012B75
:1019DC0005D13C4BDB693B4A23F08053D3617B68D8
:1019EC00DB69002B00F08780364B5B6803F00C033F
:1019FC00082B61D07B68DB69022B46D1334B00226C
:101A0C001A60FFF721FB386108E0FFF71DFB024667
:101A1C003B69D31A022B01D903236DE0294B1B68B8
:101A2C0003F00073002BF0D17B681B6AB3F5803F89
:101A3C0008D1244B5B6823F400327B689B682149F6
:101A4C0013434B601F4B5B6823F474127B68196A59
:101A5C007B685B6A0B431B4913434B601B4B012296
:101A6C001A60FFF7F1FA386108E0FFF7EDFA024669
:101A7C003B69D31A022B01D903233DE0114B1B68A0
:101A8C0003F00073002BF0D035E0104B00221A60ED
:101A9C00FFF7DAFA386108E0FFF7D6FA02463B693D
:101AAC00D31A022B01D9032326E0064B1B6803F043
:101ABC000073002BF0D11EE07B68DB69012B07D192
:101ACC00012319E000100240007000406000424207
:101ADC000B4B5B68FB60FB6803F480327B681B6A12
:101AEC009A4206D1FB6803F470127B685B6A9A42D7
:101AFC0001D0012300E0002318461837BD4680BDF5
:101B0C000010024080B584B000AF786039607B680B
:101B1C00002B01D10123D0E06A4B1B6803F00703B3
:101B2C003A689A4210D9674B1B6823F00702654943
:101B3C003B6813430B60634B1B6803F007033A6865
:101B4C009A4201D00123B8E07B681B6803F00203C2
:101B5C00002B20D07B681B6803F00403002B05D0FE
:101B6C00594B5B68584A43F4E06353607B681B68CD
:101B7C0003F00803002B05D0534B5B68524A43F427
:101B8C0060535360504B5B6823F0F0027B689B689A
:101B9C004D4913434B607B681B6803F00103002B1A
:101BAC0040D07B685B68012B07D1474B1B6803F463
:101BBC000033002B15D101237FE07B685B68022B7F
:101BCC0007D1414B1B6803F00073002B09D1012393
:101BDC0073E03D4B1B6803F00203002B01D1012382
:101BEC006BE0394B5B6823F003027B685B6836491A
:101BFC0013434B60FFF728FAF8600AE0FFF724FA6A
:101C0C000246FB68D31A41F28832934201D903236E
:101C1C0053E02D4B5B6803F00C027B685B689B0008
:101C2C009A42EBD1274B1B6803F007033A689A42A0
:101C3C0010D2244B1B6823F0070222493B68134344
:101C4C000B60204B1B6803F007033A689A4201D0E3
:101C5C00012332E07B681B6803F00403002B08D0DF
:101C6C00194B5B6823F4E0627B68DB68164913430D
:101C7C004B607B681B6803F00803002B09D0124BE8
:101C8C005B6823F460527B681B69DB000E491343CD
:101C9C004B6000F021F802460B4B5B681B0903F00C
:101CAC000F030A49CB5C22FA03F3094A1360094B70
:101CBC001B681846FFF786F9002318461037BD46F7
:101CCC0080BD00BF00200240001002402426000806
:101CDC00400000204400002090B48AB000AF294B93
:101CEC003C1D0FCB84E80F0040F201233B80002306
:101CFC00FB610023BB6100237B6200237B6100231B
:101D0C003B62214B5B68FB61FB6903F00C03042B0A
:101D1C0002D0082B03D02BE01C4B3B622BE0FB6961
:101D2C009B0C03F00F0328333B4413F8243C7B61DA
:101D3C00FB6903F48033002B12D0134B5B685B0CF4
:101D4C0003F0010328333B4413F8283CBB617B6947
:101D5C000E4A03FB02F2BB69B2FBF3F37B6204E0B5
:101D6C007B690B4A02FB03F37B627B6A3B6202E0FA
:101D7C00064B3B6200BF3B6A18462837BD4690BCF9
:101D8C00704700BF142600080010024000127A00B1
:101D9C0000093D0080B485B000AF78600A4B1B6829
:101DAC000A4AA2FB03235B0A7A6802FB03F3FB607B
:101DBC0000BFFB685A1EFA60002BF9D100BF00BFB0
:101DCC001437BD4680BC704740000020D34D6210D4
:101DDC0080B582B000AF78607B68002B01D1012305
:101DEC0041E07B6893F83D30DBB2002B06D17B6879
:101DFC00002283F83C207868FFF74CF87B680222BD
:101E0C0083F83D207B681A687B68043319461046BA
:101E1C0000F06AFA7B68012283F846207B68012275
:101E2C0083F83E207B68012283F83F207B680122E7
:101E3C0083F840207B68012283F841207B680122D3
:101E4C0083F842207B68012283F843207B680122BF
:101E5C0083F844207B68012283F845207B680122AB
:101E6C0083F83D20002318460837BD4680BD00008E
:101E7C0080B485B000AF78607B6893F83D30DBB2FE
:101E8C00012B01D0012335E07B68022283F83D2031
:101E9C007B681B68DA687B681B6842F00102DA60B9
:101EAC007B681B68164A934209D07B681B68B3F1A8
:101EBC00804F04D07B681B68124A934211D17B6817
:101ECC001B689B6803F00703FB60FB68062B10D0B4
:101EDC007B681B681A687B681B6842F001021A60F9
:101EEC0007E07B681B681A687B681B6842F001027C
:101EFC001A60002318461437BD4680BC704700BFDB
:101F0C00002C01400004004080B582B000AF786026
:101F1C007B681B681B6903F00203022B22D17B68D0
:101F2C001B68DB6803F00203022B1BD17B681B6868
:101F3C006FF002021A617B6801221A777B681B68BA
:101F4C009B6903F00303002B03D0786800F0B1F910
:101F5C0005E0786800F0A4F9786800F0B3F97B68C4
:101F6C0000221A777B681B681B6903F00403042B9F
:101F7C0022D17B681B68DB6803F00403042B1BD1A4
:101F8C007B681B686FF004021A617B6802221A7767
:101F9C007B681B689B6903F44073002B03D0786843
:101FAC0000F087F905E0786800F07AF9786800F0BD
:101FBC0089F97B6800221A777B681B681B6903F020
:101FCC000803082B22D17B681B68DB6803F008032D
:101FDC00082B1BD17B681B686FF008021A617B68A9
:101FEC0004221A777B681B68DB6903F00303002B60
:101FFC0003D0786800F05DF905E0786800F050F9DE
:10200C00786800F05FF97B6800221A777B681B68A0
:10201C001B6903F01003102B22D17B681B68DB6853
:10202C0003F01003102B1BD17B681B686FF01002A0
:10203C001A617B6808221A777B681B68DB6903F4DA
:10204C004073002B03D0786800F033F905E0786812
:10205C0000F026F9786800F035F97B6800221A77D1
:10206C007B681B681B6903F00103012B0ED17B6895
:10207C001B68DB6803F00103012B07D17B681B682D
:10208C006FF001021A617868FEF7D0FE7B681B685E
:10209C001B6903F08003802B0ED17B681B68DB6807
:1020AC0003F08003802B07D17B681B686FF08002E4
:1020BC001A61786800F067FA7B681B681B6903F08B
:1020CC004003402B0ED17B681B68DB6803F0400398
:1020DC00402B07D17B681B686FF040021A6178684F
:1020EC0000F0F9F87B681B681B6903F02003202BB8
:1020FC000ED17B681B68DB6803F02003202B07D113
:10210C007B681B686FF020021A61786800F032FA65
:10211C0000BF0837BD4680BD80B584B000AF786085
:10212C0039607B6893F83C30012B01D10223B3E07A
:10213C007B68012283F83C207B68022283F83D20D7
:10214C007B681B689B68FB60FB6823F07703FB6074
:10215C00FB6823F47F43FB607B681B68FA689A601A
:10216C003B681B68B3F5005F3ED0B3F5005F00F22F
:10217C008780B3F5805F00F08580B3F5805F7FD8F2
:10218C00702B1AD0702B7BD8602B50D0602B77D84B
:10219C00502B3CD0502B73D8402B58D0402B6FD8A1
:1021AC00302B64D0302B6BD8202B60D0202B67D8F1
:1021BC00002B5CD0102B5AD062E07B6818683B680F
:1021CC0099683B685A683B68DB6800F05CF97B688F
:1021DC001B689B68FB60FB6843F07703FB607B68C4
:1021EC001B68FA689A604EE07B6818683B689968CF
:1021FC003B685A683B68DB6800F045F97B681B68F4
:10220C009A687B681B6842F480429A603BE07B686A
:10221C0018683B6859683B68DB681A4600F0BCF8E4
:10222C007B681B685021184600F013F92BE07B6883
:10223C0018683B6859683B68DB681A4600F0DAF8A6
:10224C007B681B686021184600F003F91BE07B6873
:10225C0018683B6859683B68DB681A4600F09CF8C4
:10226C007B681B684021184600F0F3F80BE07B6894
:10227C001A683B681B681946104600F0EAF802E041
:10228C0000BF00E000BF7B68012283F83D207B6823
:10229C00002283F83C20002318461037BD4680BD31
:1022AC0080B483B000AF786000BF0C37BD4680BCF3
:1022BC00704780B483B000AF786000BF0C37BD4668
:1022CC0080BC704780B483B000AF786000BF0C371F
:1022DC00BD4680BC704780B483B000AF786000BF4F
:1022EC000C37BD4680BC704780B485B000AF7860B9
:1022FC0039607B681B68FB607B68254A934207D07A
:10230C007B68B3F1804F03D07B68224A934208D19B
:10231C00FB6823F07003FB603B685B68FA6813434F
:10232C00FB607B681A4A934207D07B68B3F1804FFD
:10233C0003D07B68174A934208D1FB6823F440739F
:10234C00FB603B68DB68FA681343FB60FB6823F0B7
:10235C0080023B685B691343FB607B68FA681A6018
:10236C003B689A687B68DA623B681A687B689A6299
:10237C007B68074A934203D13B681A697B681A63EE
:10238C007B6801225A6100BF1437BD4680BC704780
:10239C00002C01400004004080B487B000AFF8600E
:1023AC00B9607A60FB681B6A7B61FB681B6A23F06F
:1023BC000102FB681A62FB689B693B613B6923F075
:1023CC00F0033B617B681B013A6913433B617B69FA
:1023DC0023F00A037B617A69BB6813437B61FB685A
:1023EC003A699A61FB687A691A6200BF1C37BD466C
:1023FC0080BC704780B487B000AFF860B9607A6079
:10240C00FB681B6A23F01002FB681A62FB689B696D
:10241C007B61FB681B6A3B617B6923F470437B61C6
:10242C007B681B037A6913437B613B6923F0A00330
:10243C003B61BB681B013A6913433B61FB687A69DA
:10244C009A61FB683A691A6200BF1C37BD4680BCB2
:10245C00704780B485B000AF786039607B689B684A
:10246C00FB60FB6823F07003FB603A68FB68134366
:10247C0043F00703FB607B68FA689A6000BF14376F
:10248C00BD4680BC704780B487B000AFF860B960BF
:10249C007A603B60FB689B687B617B6923F47F43BC
:1024AC007B613B681A027B681A43BB6813437A69E9
:1024BC0013437B61FB687A699A6000BF1C37BD4689
:1024CC0080BC704780B485B000AF786039607B68A1
:1024DC0093F83C30012B01D1022341E07B680122AF
:1024EC0083F83C207B68022283F83D207B681B68C4
:1024FC005B68FB607B681B689B68BB60FB6823F0B8
:10250C007003FB603B681B68FA681343FB607B68D5
:10251C001B68FA685A607B681B68144A934209D09E
:10252C007B681B68B3F1804F04D07B681B68104A32
:10253C0093420CD1BB6823F08003BB603B685B68A3
:10254C00BA681343BB607B681B68BA689A607B6887
:10255C00012283F83D207B68002283F83C20002375
:10256C0018461437BD4680BC704700BF002C014094
:10257C000004004080B483B000AF786000BF0C371B
:10258C00BD4680BC704780B483B000AF786000BF9C
:10259C000C37BD4680BC704770B500260C4D0D4CF9
:1025AC00641BA410A64209D100F022F800260A4DA3
:1025BC000A4C641BA410A64205D170BD55F8043B0F
:1025CC0098470136EEE755F8043B98470136F2E799
:1025DC003426000834260008342600083826000863
:1025EC0003460244934200D1704703F8011BF9E7FC
:1025FC00F8B500BFF8BC08BC9E467047F8B500BFE4
:08260C00F8BC08BC9E467047B3
:1026140002030405060708090A0B0C0D0E0F10101F
:10262400000000000000000001020304060708097E
:042634003101000868
:042638000D01000888
:10263C006400000064000000640000000100000061
:10264C00010000000100000001000000010000007A
:10265C00010000000100000001000000010000006A
:10266C000100000001000000010000000A00000051
:0C267C000024F400100000000100000029
:0400000508000F5987
:00000001FF
